:020000040000FA
:10000000000000EB250000EB2C008FE2000C90E8D4
:1000100000A08AE000B08BE001704AE20B005AE1D8
:100020000000001A1D0000EB0F00BAE818E04FE2D4
:10003000010013E303F0471013FF2FE1EC01000070
:10004000FC0100000030B0E30040B0E30050B0E33A
:100050000060B0E3102052E27800A128FCFFFF8A84
:10006000822EB0E13000A128003081451EFF2FE133
:1000700001C08FE21CFF2FE11FB500F0D1F80598F9
:1000800086460FBC009C02B07047000001C08FE2A2
:100090001CFF2FE130B47546AE4630BC70470000FF
:1000A000390000EB0210A0E1F0FFFFEB1CC09FE560
:1000B0000FC08CE001001CE30DE08F120FE0A001E7
:1000C0001CFF2FE101C08FE21CFF2FE100F08EF832
:1000D000780000007847C046EBFFFFEB480000EBDC
:1000E0000C009FE50C109FE504209FE508309FE57C
:1000F0001EFF2FE1600000406004004060000040EF
:100100000020A0E3060000EA0010A0E3000000EADF
:10011000011081E260309FE5030051E1FBFFFF3AEF
:10012000012082E2000052E1F6FFFF3A1EFF2FE1BC
:1001300004E02DE50000E0E340109FE5080081E5C4
:10014000180081E50B0000EA0000E0E32C109FE5B9
:100150000C0081E51C0081E5FA0FA0E3E7FFFFEB4F
:100160000000E0E314109FE5040081E5140081E540
:10017000FA0FA0E3E1FFFFEBF2FFFFEA88130000B4
:10018000008002E070477047704700000E50A0E109
:10019000180000EB05E0A0E10050B0E10D10A0E177
:1001A0000A30A0E10700C0E300D0A0E160D08DE2FA
:1001B00020402DE9C9FFFFEB2040BDE80060A0E32F
:1001C0000070A0E30080A0E300B0A0E30710C1E34B
:1001D00005C0A0E1C009ACE8C009ACE8C009ACE8C2
:1001E000C009ACE801D0A0E11EFF2FE10400C04629
:1001F000C0462000FFF76EFF00009FE51EFF2FE1C5
:10020000000000400C109FE51800A0E3563412EFE8
:100210001EFF2FE108000000260002001EFF2FE154
:100220007847C0461EFF2FE1380200000000004062
:08023000E80400004400000096
:0400000500000000F7
:00000001FF
